{
  "contractName": "Registry",
  "abi": [
    {
      "anonymous": false,
      "inputs": [
        {
          "indexed": false,
          "name": "contractName",
          "type": "string"
        },
        {
          "indexed": false,
          "name": "version",
          "type": "string"
        },
        {
          "indexed": true,
          "name": "proxy",
          "type": "address"
        }
      ],
      "name": "ProxyCreated",
      "type": "event"
    },
    {
      "anonymous": false,
      "inputs": [
        {
          "indexed": false,
          "name": "contractName",
          "type": "string"
        },
        {
          "indexed": false,
          "name": "version",
          "type": "string"
        },
        {
          "indexed": true,
          "name": "implementation",
          "type": "address"
        }
      ],
      "name": "VersionAdded",
      "type": "event"
    },
    {
      "constant": false,
      "inputs": [
        {
          "name": "contractName",
          "type": "string"
        },
        {
          "name": "version",
          "type": "string"
        },
        {
          "name": "implementation",
          "type": "address"
        }
      ],
      "name": "addVersion",
      "outputs": [],
      "payable": false,
      "stateMutability": "nonpayable",
      "type": "function"
    },
    {
      "constant": true,
      "inputs": [
        {
          "name": "contractName",
          "type": "string"
        },
        {
          "name": "version",
          "type": "string"
        }
      ],
      "name": "getVersion",
      "outputs": [
        {
          "name": "",
          "type": "address"
        }
      ],
      "payable": false,
      "stateMutability": "view",
      "type": "function"
    },
    {
      "constant": false,
      "inputs": [
        {
          "name": "contractName",
          "type": "string"
        },
        {
          "name": "version",
          "type": "string"
        }
      ],
      "name": "createProxy",
      "outputs": [
        {
          "name": "",
          "type": "address"
        }
      ],
      "payable": true,
      "stateMutability": "payable",
      "type": "function"
    }
  ],
  "bytecode": "0x608060405234801561001057600080fd5b50610e91806100206000396000f300608060405260043610610057576000357c0100000000000000000000000000000000000000000000000000000000900463ffffffff168063385435521461005c5780634d4a76f5146100ef5780634eae4cee14610162575b600080fd5b34801561006857600080fd5b506100ad600480360381019080803590602001908201803590602001919091929391929390803590602001908201803590602001919091929391929390505050610244565b604051808273ffffffffffffffffffffffffffffffffffffffff1673ffffffffffffffffffffffffffffffffffffffff16815260200191505060405180910390f35b3480156100fb57600080fd5b50610160600480360381019080803590602001908201803590602001919091929391929390803590602001908201803590602001919091929391929390803573ffffffffffffffffffffffffffffffffffffffff1690602001909291905050506102b8565b005b610202600480360381019080803590602001908201803590602001908080601f0160208091040260200160405190810160405280939291908181526020018383808284378201915050505050509192919290803590602001908201803590602001908080601f01602080910402602001604051908101604052809392919081815260200183838082843782019150505050505091929192905050506104eb565b604051808273ffffffffffffffffffffffffffffffffffffffff1673ffffffffffffffffffffffffffffffffffffffff16815260200191505060405180910390f35b6000808585604051808383808284378201915050925050509081526020016040518091039020838360405180838380828437820191505092505050908152602001604051809103902060009054906101000a900473ffffffffffffffffffffffffffffffffffffffff169050949350505050565b6000808686604051808383808284378201915050925050509081526020016040518091039020848460405180838380828437820191505092505050908152602001604051809103902060009054906101000a900473ffffffffffffffffffffffffffffffffffffffff1673ffffffffffffffffffffffffffffffffffffffff161415156103d3576040517f08c379a00000000000000000000000000000000000000000000000000000000081526004018080602001828103825260278152602001807f636f6e74726163742076657273696f6e206164647265737320616c726561647981526020017f206578697374730000000000000000000000000000000000000000000000000081525060400191505060405180910390fd5b8060008686604051808383808284378201915050925050509081526020016040518091039020848460405180838380828437820191505092505050908152602001604051809103902060006101000a81548173ffffffffffffffffffffffffffffffffffffffff021916908373ffffffffffffffffffffffffffffffffffffffff1602179055508073ffffffffffffffffffffffffffffffffffffffff167f337b109e3f497728f2bdd27545c9ed1cb52ed4a4103cc94da88b868879c982e2868686866040518080602001806020018381038352878782818152602001925080828437820191505083810382528585828181526020019250808284378201915050965050505050505060405180910390a25050505050565b60008083836104f86107d0565b808060200180602001838103835285818151815260200191508051906020019080838360005b8381101561053957808201518184015260208101905061051e565b50505050905090810190601f1680156105665780820380516001836020036101000a031916815260200191505b50838103825284818151815260200191508051906020019080838360005b8381101561059f578082015181840152602081019050610584565b50505050905090810190601f1680156105cc5780820380516001836020036101000a031916815260200191505b50945050505050604051809103906000f0801580156105ef573d6000803e3d6000fd5b5090508073ffffffffffffffffffffffffffffffffffffffff1663c4d66de834336040518363ffffffff167c0100000000000000000000000000000000000000000000000000000000028152600401808273ffffffffffffffffffffffffffffffffffffffff1673ffffffffffffffffffffffffffffffffffffffff1681526020019150506000604051808303818588803b15801561068d57600080fd5b505af11580156106a1573d6000803e3d6000fd5b50505050508073ffffffffffffffffffffffffffffffffffffffff167f012ddc663e58d5579a7ec6a9303c3660b4f49a03d371ced51e751d88c8bbd0b68585604051808060200180602001838103835285818151815260200191508051906020019080838360005b83811015610724578082015181840152602081019050610709565b50505050905090810190601f1680156107515780820380516001836020036101000a031916815260200191505b50838103825284818151815260200191508051906020019080838360005b8381101561078a57808201518184015260208101905061076f565b50505050905090810190601f1680156107b75780820380516001836020036101000a031916815260200191505b5094505050505060405180910390a28091505092915050565b604051610685806107e1833901905600608060405234801561001057600080fd5b506040516106853803806106858339810180604052810190808051820192919060200180518201929190505050336000806101000a81548173ffffffffffffffffffffffffffffffffffffffff021916908373ffffffffffffffffffffffffffffffffffffffff160217905550610096828261009d640100000000026401000000009004565b505061027e565b6000809054906101000a900473ffffffffffffffffffffffffffffffffffffffff1673ffffffffffffffffffffffffffffffffffffffff16633854355283836040518363ffffffff167c0100000000000000000000000000000000000000000000000000000000028152600401808060200180602001838103835285818151815260200191508051906020019080838360005b8381101561014b578082015181840152602081019050610130565b50505050905090810190601f1680156101785780820380516001836020036101000a031916815260200191505b50838103825284818151815260200191508051906020019080838360005b838110156101b1578082015181840152602081019050610196565b50505050905090810190601f1680156101de5780820380516001836020036101000a031916815260200191505b50945050505050602060405180830381600087803b1580156101ff57600080fd5b505af1158015610213573d6000803e3d6000fd5b505050506040513d602081101561022957600080fd5b8101908080519060200190929190505050600160006101000a81548173ffffffffffffffffffffffffffffffffffffffff021916908373ffffffffffffffffffffffffffffffffffffffff1602179055505050565b6103f88061028d6000396000f30060806040526004361061004c576000357c0100000000000000000000000000000000000000000000000000000000900463ffffffff1680635c60da1b146100bb57806383ef8ebe14610112575b60006100566101c1565b9050600073ffffffffffffffffffffffffffffffffffffffff168173ffffffffffffffffffffffffffffffffffffffff161415151561009457600080fd5b60405136600082376000803683855af43d806000843e81600081146100b7578184f35b8184fd5b3480156100c757600080fd5b506100d06101c1565b604051808273ffffffffffffffffffffffffffffffffffffffff1673ffffffffffffffffffffffffffffffffffffffff16815260200191505060405180910390f35b34801561011e57600080fd5b506101bf600480360381019080803590602001908201803590602001908080601f0160208091040260200160405190810160405280939291908181526020018383808284378201915050505050509192919290803590602001908201803590602001908080601f01602080910402602001604051908101604052809392919081815260200183838082843782019150505050505091929192905050506101eb565b005b6000600160009054906101000a900473ffffffffffffffffffffffffffffffffffffffff16905090565b6000809054906101000a900473ffffffffffffffffffffffffffffffffffffffff1673ffffffffffffffffffffffffffffffffffffffff16633854355283836040518363ffffffff167c0100000000000000000000000000000000000000000000000000000000028152600401808060200180602001838103835285818151815260200191508051906020019080838360005b8381101561029957808201518184015260208101905061027e565b50505050905090810190601f1680156102c65780820380516001836020036101000a031916815260200191505b50838103825284818151815260200191508051906020019080838360005b838110156102ff5780820151818401526020810190506102e4565b50505050905090810190601f16801561032c5780820380516001836020036101000a031916815260200191505b50945050505050602060405180830381600087803b15801561034d57600080fd5b505af1158015610361573d6000803e3d6000fd5b505050506040513d602081101561037757600080fd5b8101908080519060200190929190505050600160006101000a81548173ffffffffffffffffffffffffffffffffffffffff021916908373ffffffffffffffffffffffffffffffffffffffff16021790555050505600a165627a7a72305820fa1a51d033ef221e6590b54463c530f5da01a1c49240360db12fc935fddbc7ea0029a165627a7a7230582089e63cf5764d6e2194a9afcb34d764ab5f54e88ec5c29d5edd5a072b98aa7dc60029",
  "source": "pragma solidity ^0.4.24;\n\nimport './IRegistry.sol';\nimport './Upgradeable.sol';\nimport './UpgradeabilityProxy.sol';\n\n/**\n * @title Registry\n * @dev This contract works as a registry of versions, it holds the implementations for the registered versions.\n */\ncontract Registry is IRegistry {\n  // Mapping of versions to implementations of different functions\n  mapping (string => mapping (string => address)) internal versions;\n\n  /**\n  * @dev Registers a new version with its implementation address\n  * @param contractName representing the name of one of the three contracts\n  * @param version representing the version name of the new implementation to be registered\n  * @param implementation representing the address of the new implementation to be registered\n  */\n  function addVersion(string contractName, string version, address implementation) external {\n    require(versions[contractName][version] == 0x0, 'contract version address already exists');\n    versions[contractName][version] = implementation;\n    emit VersionAdded(contractName, version, implementation);\n  }\n\n  /**\n  * @dev Tells the address of the implementation for a given version\n  * @param contractName representing the name of one of the three contracts\n  * @param version to query the implementation of\n  * @return address of the implementation registered for the given version\n  */\n  function getVersion(string contractName, string version) external view returns (address) {\n    return versions[contractName][version];\n  }\n\n  /**\n  * @dev Creates an upgradeable proxy\n  * @param contractName representing the name of one of the three contracts\n  * @param version representing the first version to be set for the proxy\n  * @return address of the new proxy created\n  */\n  function createProxy(string contractName, string version) public payable returns (UpgradeabilityProxy) {\n    UpgradeabilityProxy proxy = new UpgradeabilityProxy(contractName, version);\n    Upgradeable(proxy).initialize.value(msg.value)(msg.sender);\n    emit ProxyCreated(contractName, version, proxy);\n    return proxy;\n  }\n}",
  "sourcePath": "/Users/vcrizpy/Desktop/dapps/gitcoin/Upgradable/alpha/contracts/upgradability/Registry.sol",
  "compiler": {
    "name": "solc",
    "version": "0.4.24+commit.e67f0147.Emscripten.clang"
  },
  "schemaVersion": "2.0.1",
  "updatedAt": "2018-08-28T09:31:47.140Z"
}