{
  "contractName": "Upgradeable",
  "abi": [
    {
      "constant": true,
      "inputs": [],
      "name": "implementation",
      "outputs": [
        {
          "name": "",
          "type": "address"
        }
      ],
      "payable": false,
      "stateMutability": "view",
      "type": "function"
    },
    {
      "constant": false,
      "inputs": [
        {
          "name": "sender",
          "type": "address"
        }
      ],
      "name": "initialize",
      "outputs": [],
      "payable": true,
      "stateMutability": "payable",
      "type": "function"
    }
  ],
  "bytecode": "0x608060405234801561001057600080fd5b506101fb806100206000396000f30060806040526004361061004c576000357c0100000000000000000000000000000000000000000000000000000000900463ffffffff1680635c60da1b14610051578063c4d66de8146100a8575b600080fd5b34801561005d57600080fd5b506100666100de565b604051808273ffffffffffffffffffffffffffffffffffffffff1673ffffffffffffffffffffffffffffffffffffffff16815260200191505060405180910390f35b6100dc600480360381019080803573ffffffffffffffffffffffffffffffffffffffff169060200190929190505050610108565b005b6000600160009054906101000a900473ffffffffffffffffffffffffffffffffffffffff16905090565b6000809054906101000a900473ffffffffffffffffffffffffffffffffffffffff1673ffffffffffffffffffffffffffffffffffffffff163373ffffffffffffffffffffffffffffffffffffffff161415156101cc576040517f08c379a00000000000000000000000000000000000000000000000000000000081526004018080602001828103825260168152602001807f6d73672e73656e64657220213d2072656769737472790000000000000000000081525060200191505060405180910390fd5b505600a165627a7a723058202dc184937db36c8389b8a40ed20cd2224708af46d65f9965527bceb1975f4a5c0029",
  "source": "pragma solidity ^0.4.24;\n\nimport './UpgradeabilityStorage.sol';\n\n/**\n * @title Upgradeable\n * @dev This contract holds all the minimum required functionality for a behavior to be upgradeable.\n * This means, required state variables for owned upgradeability purpose and simple initialization validation.\n */\ncontract Upgradeable is UpgradeabilityStorage {\n  /**\n  * @dev Validates the caller is the versions registry.\n  * THIS FUNCTION SHOULD BE OVERRIDDEN CALLING SUPER\n  * @param sender representing the address deploying the initial behavior of the contract\n  */\n  function initialize(address sender) public payable {\n    require(msg.sender == address(registry), 'msg.sender != registry');\n  }\n}",
  "sourcePath": "/Users/vcrizpy/Desktop/dapps/gitcoin/Upgradable/alpha/contracts/upgradability/Upgradeable.sol",
  "compiler": {
    "name": "solc",
    "version": "0.4.24+commit.e67f0147.Emscripten.clang"
  },
  "schemaVersion": "2.0.1",
  "updatedAt": "2018-08-20T18:49:34.859Z"
}